{
  "_format": "hh-sol-artifact-1",
  "contractName": "NFTMarketplace",
  "sourceName": "contracts/NFTMarketplace.sol",
  "abi": [
    {
      "inputs": [],
      "stateMutability": "nonpayable",
      "type": "constructor"
    },
    {
      "anonymous": false,
      "inputs": [
        {
          "indexed": true,
          "internalType": "address",
          "name": "owner",
          "type": "address"
        },
        {
          "indexed": true,
          "internalType": "address",
          "name": "approved",
          "type": "address"
        },
        {
          "indexed": true,
          "internalType": "uint256",
          "name": "tokenId",
          "type": "uint256"
        }
      ],
      "name": "Approval",
      "type": "event"
    },
    {
      "anonymous": false,
      "inputs": [
        {
          "indexed": true,
          "internalType": "address",
          "name": "owner",
          "type": "address"
        },
        {
          "indexed": true,
          "internalType": "address",
          "name": "operator",
          "type": "address"
        },
        {
          "indexed": false,
          "internalType": "bool",
          "name": "approved",
          "type": "bool"
        }
      ],
      "name": "ApprovalForAll",
      "type": "event"
    },
    {
      "anonymous": false,
      "inputs": [
        {
          "indexed": false,
          "internalType": "uint256",
          "name": "_fromTokenId",
          "type": "uint256"
        },
        {
          "indexed": false,
          "internalType": "uint256",
          "name": "_toTokenId",
          "type": "uint256"
        }
      ],
      "name": "BatchMetadataUpdate",
      "type": "event"
    },
    {
      "anonymous": false,
      "inputs": [
        {
          "indexed": true,
          "internalType": "uint256",
          "name": "tokenId",
          "type": "uint256"
        },
        {
          "indexed": false,
          "internalType": "address",
          "name": "seller",
          "type": "address"
        },
        {
          "indexed": false,
          "internalType": "address",
          "name": "owner",
          "type": "address"
        },
        {
          "indexed": false,
          "internalType": "uint256",
          "name": "price",
          "type": "uint256"
        },
        {
          "indexed": false,
          "internalType": "bool",
          "name": "sold",
          "type": "bool"
        }
      ],
      "name": "Marketcre",
      "type": "event"
    },
    {
      "anonymous": false,
      "inputs": [
        {
          "indexed": false,
          "internalType": "uint256",
          "name": "_tokenId",
          "type": "uint256"
        }
      ],
      "name": "MetadataUpdate",
      "type": "event"
    },
    {
      "anonymous": false,
      "inputs": [
        {
          "indexed": true,
          "internalType": "uint256",
          "name": "tokenId",
          "type": "uint256"
        },
        {
          "indexed": false,
          "internalType": "address",
          "name": "seller",
          "type": "address"
        },
        {
          "indexed": false,
          "internalType": "address",
          "name": "owner",
          "type": "address"
        },
        {
          "indexed": false,
          "internalType": "uint256",
          "name": "price",
          "type": "uint256"
        }
      ],
      "name": "TokenResold",
      "type": "event"
    },
    {
      "anonymous": false,
      "inputs": [
        {
          "indexed": true,
          "internalType": "address",
          "name": "from",
          "type": "address"
        },
        {
          "indexed": true,
          "internalType": "address",
          "name": "to",
          "type": "address"
        },
        {
          "indexed": true,
          "internalType": "uint256",
          "name": "tokenId",
          "type": "uint256"
        }
      ],
      "name": "Transfer",
      "type": "event"
    },
    {
      "inputs": [],
      "name": "Rowner",
      "outputs": [
        {
          "internalType": "address payable",
          "name": "",
          "type": "address"
        }
      ],
      "stateMutability": "view",
      "type": "function"
    },
    {
      "inputs": [
        {
          "internalType": "address",
          "name": "to",
          "type": "address"
        },
        {
          "internalType": "uint256",
          "name": "tokenId",
          "type": "uint256"
        }
      ],
      "name": "approve",
      "outputs": [],
      "stateMutability": "nonpayable",
      "type": "function"
    },
    {
      "inputs": [
        {
          "internalType": "address",
          "name": "owner",
          "type": "address"
        }
      ],
      "name": "balanceOf",
      "outputs": [
        {
          "internalType": "uint256",
          "name": "",
          "type": "uint256"
        }
      ],
      "stateMutability": "view",
      "type": "function"
    },
    {
      "inputs": [
        {
          "internalType": "uint256",
          "name": "tokenId",
          "type": "uint256"
        },
        {
          "internalType": "uint256",
          "name": "price",
          "type": "uint256"
        }
      ],
      "name": "createMarketItem",
      "outputs": [],
      "stateMutability": "payable",
      "type": "function"
    },
    {
      "inputs": [
        {
          "internalType": "uint256",
          "name": "tokenId",
          "type": "uint256"
        }
      ],
      "name": "createMarketSale",
      "outputs": [],
      "stateMutability": "payable",
      "type": "function"
    },
    {
      "inputs": [
        {
          "internalType": "string",
          "name": "tokenURI",
          "type": "string"
        },
        {
          "internalType": "uint256",
          "name": "price",
          "type": "uint256"
        }
      ],
      "name": "createToken",
      "outputs": [
        {
          "internalType": "uint256",
          "name": "",
          "type": "uint256"
        }
      ],
      "stateMutability": "payable",
      "type": "function"
    },
    {
      "inputs": [],
      "name": "fetchItemsListed",
      "outputs": [
        {
          "components": [
            {
              "internalType": "uint256",
              "name": "tokenId",
              "type": "uint256"
            },
            {
              "internalType": "address payable",
              "name": "seller",
              "type": "address"
            },
            {
              "internalType": "address payable",
              "name": "owner",
              "type": "address"
            },
            {
              "internalType": "uint256",
              "name": "price",
              "type": "uint256"
            },
            {
              "internalType": "bool",
              "name": "sold",
              "type": "bool"
            }
          ],
          "internalType": "struct NFTMarketplace.MarketItem[]",
          "name": "",
          "type": "tuple[]"
        }
      ],
      "stateMutability": "view",
      "type": "function"
    },
    {
      "inputs": [],
      "name": "fetchMarketItems",
      "outputs": [
        {
          "components": [
            {
              "internalType": "uint256",
              "name": "tokenId",
              "type": "uint256"
            },
            {
              "internalType": "address payable",
              "name": "seller",
              "type": "address"
            },
            {
              "internalType": "address payable",
              "name": "owner",
              "type": "address"
            },
            {
              "internalType": "uint256",
              "name": "price",
              "type": "uint256"
            },
            {
              "internalType": "bool",
              "name": "sold",
              "type": "bool"
            }
          ],
          "internalType": "struct NFTMarketplace.MarketItem[]",
          "name": "",
          "type": "tuple[]"
        }
      ],
      "stateMutability": "view",
      "type": "function"
    },
    {
      "inputs": [],
      "name": "fetchMyNFTs",
      "outputs": [
        {
          "components": [
            {
              "internalType": "uint256",
              "name": "tokenId",
              "type": "uint256"
            },
            {
              "internalType": "address payable",
              "name": "seller",
              "type": "address"
            },
            {
              "internalType": "address payable",
              "name": "owner",
              "type": "address"
            },
            {
              "internalType": "uint256",
              "name": "price",
              "type": "uint256"
            },
            {
              "internalType": "bool",
              "name": "sold",
              "type": "bool"
            }
          ],
          "internalType": "struct NFTMarketplace.MarketItem[]",
          "name": "",
          "type": "tuple[]"
        }
      ],
      "stateMutability": "view",
      "type": "function"
    },
    {
      "inputs": [
        {
          "internalType": "uint256",
          "name": "tokenId",
          "type": "uint256"
        }
      ],
      "name": "getApproved",
      "outputs": [
        {
          "internalType": "address",
          "name": "",
          "type": "address"
        }
      ],
      "stateMutability": "view",
      "type": "function"
    },
    {
      "inputs": [],
      "name": "getBalance",
      "outputs": [
        {
          "internalType": "uint256",
          "name": "",
          "type": "uint256"
        }
      ],
      "stateMutability": "view",
      "type": "function"
    },
    {
      "inputs": [],
      "name": "getListingPrice",
      "outputs": [
        {
          "internalType": "uint256",
          "name": "",
          "type": "uint256"
        }
      ],
      "stateMutability": "view",
      "type": "function"
    },
    {
      "inputs": [],
      "name": "getMemos",
      "outputs": [
        {
          "components": [
            {
              "internalType": "string",
              "name": "name",
              "type": "string"
            },
            {
              "internalType": "string",
              "name": "message",
              "type": "string"
            },
            {
              "internalType": "uint256",
              "name": "timestamp",
              "type": "uint256"
            },
            {
              "internalType": "address",
              "name": "from",
              "type": "address"
            }
          ],
          "internalType": "struct NFTMarketplace.Memo[]",
          "name": "",
          "type": "tuple[]"
        }
      ],
      "stateMutability": "view",
      "type": "function"
    },
    {
      "inputs": [
        {
          "internalType": "address",
          "name": "owner",
          "type": "address"
        },
        {
          "internalType": "address",
          "name": "operator",
          "type": "address"
        }
      ],
      "name": "isApprovedForAll",
      "outputs": [
        {
          "internalType": "bool",
          "name": "",
          "type": "bool"
        }
      ],
      "stateMutability": "view",
      "type": "function"
    },
    {
      "inputs": [],
      "name": "name",
      "outputs": [
        {
          "internalType": "string",
          "name": "",
          "type": "string"
        }
      ],
      "stateMutability": "view",
      "type": "function"
    },
    {
      "inputs": [
        {
          "internalType": "uint256",
          "name": "tokenId",
          "type": "uint256"
        }
      ],
      "name": "ownerOf",
      "outputs": [
        {
          "internalType": "address",
          "name": "",
          "type": "address"
        }
      ],
      "stateMutability": "view",
      "type": "function"
    },
    {
      "inputs": [
        {
          "internalType": "uint256",
          "name": "tokenId",
          "type": "uint256"
        },
        {
          "internalType": "uint256",
          "name": "price",
          "type": "uint256"
        }
      ],
      "name": "resellToken",
      "outputs": [],
      "stateMutability": "payable",
      "type": "function"
    },
    {
      "inputs": [
        {
          "internalType": "address",
          "name": "from",
          "type": "address"
        },
        {
          "internalType": "address",
          "name": "to",
          "type": "address"
        },
        {
          "internalType": "uint256",
          "name": "tokenId",
          "type": "uint256"
        }
      ],
      "name": "safeTransferFrom",
      "outputs": [],
      "stateMutability": "nonpayable",
      "type": "function"
    },
    {
      "inputs": [
        {
          "internalType": "address",
          "name": "from",
          "type": "address"
        },
        {
          "internalType": "address",
          "name": "to",
          "type": "address"
        },
        {
          "internalType": "uint256",
          "name": "tokenId",
          "type": "uint256"
        },
        {
          "internalType": "bytes",
          "name": "data",
          "type": "bytes"
        }
      ],
      "name": "safeTransferFrom",
      "outputs": [],
      "stateMutability": "nonpayable",
      "type": "function"
    },
    {
      "inputs": [
        {
          "internalType": "address",
          "name": "operator",
          "type": "address"
        },
        {
          "internalType": "bool",
          "name": "approved",
          "type": "bool"
        }
      ],
      "name": "setApprovalForAll",
      "outputs": [],
      "stateMutability": "nonpayable",
      "type": "function"
    },
    {
      "inputs": [
        {
          "internalType": "bytes4",
          "name": "interfaceId",
          "type": "bytes4"
        }
      ],
      "name": "supportsInterface",
      "outputs": [
        {
          "internalType": "bool",
          "name": "",
          "type": "bool"
        }
      ],
      "stateMutability": "view",
      "type": "function"
    },
    {
      "inputs": [],
      "name": "symbol",
      "outputs": [
        {
          "internalType": "string",
          "name": "",
          "type": "string"
        }
      ],
      "stateMutability": "view",
      "type": "function"
    },
    {
      "inputs": [
        {
          "internalType": "uint256",
          "name": "tokenId",
          "type": "uint256"
        }
      ],
      "name": "tokenURI",
      "outputs": [
        {
          "internalType": "string",
          "name": "",
          "type": "string"
        }
      ],
      "stateMutability": "view",
      "type": "function"
    },
    {
      "inputs": [
        {
          "internalType": "address",
          "name": "from",
          "type": "address"
        },
        {
          "internalType": "address",
          "name": "to",
          "type": "address"
        },
        {
          "internalType": "uint256",
          "name": "tokenId",
          "type": "uint256"
        }
      ],
      "name": "transferFrom",
      "outputs": [],
      "stateMutability": "nonpayable",
      "type": "function"
    },
    {
      "inputs": [
        {
          "internalType": "uint256",
          "name": "_listingPrice",
          "type": "uint256"
        }
      ],
      "name": "updateListingPrice",
      "outputs": [],
      "stateMutability": "payable",
      "type": "function"
    }
  ],
  "bytecode": "0x60806040526658d15e17628000600a553480156200001c57600080fd5b506040518060400160405280601081526020017f4d657461766572736520546f6b656e73000000000000000000000000000000008152506040518060400160405280600481526020017f4d455454000000000000000000000000000000000000000000000000000000008152508160009080519060200190620000a192919062000145565b508060019080519060200190620000ba92919062000145565b50505033600e60006101000a81548173ffffffffffffffffffffffffffffffffffffffff021916908373ffffffffffffffffffffffffffffffffffffffff16021790555033600b60006101000a81548173ffffffffffffffffffffffffffffffffffffffff021916908373ffffffffffffffffffffffffffffffffffffffff1602179055506200025a565b828054620001539062000224565b90600052602060002090601f016020900481019282620001775760008555620001c3565b82601f106200019257805160ff1916838001178555620001c3565b82800160010185558215620001c3579182015b82811115620001c2578251825591602001919060010190620001a5565b5b509050620001d29190620001d6565b5090565b5b80821115620001f1576000816000905550600101620001d7565b5090565b7f4e487b7100000000000000000000000000000000000000000000000000000000600052602260045260246000fd5b600060028204905060018216806200023d57607f821691505b60208210811415620002545762000253620001f5565b5b50919050565b6146a8806200026a6000396000f3fe6080604052600436106101665760003560e01c80636352211e116100d1578063a22cb4651161008a578063be9af53611610064578063be9af53614610517578063c87b56dd14610533578063e219fc7514610570578063e985e9c51461058c57610166565b8063a22cb465146104a9578063ae677aa3146104d2578063b88d4fde146104ee57610166565b80636352211e1461037e57806370a08231146103bb57806372b3b620146103f8578063865c51721461042857806395d89b4114610453578063a0d180451461047e57610166565b806312e855851161012357806312e855851461028f578063202e3740146102ba57806323b872dd146102e5578063361c19951461030e57806342842e0e1461032a57806345f8fa801461035357610166565b806301ffc9a71461016b57806306fdde03146101a8578063081812fc146101d3578063095ea7b3146102105780630f08efe01461023957806312065fe014610264575b600080fd5b34801561017757600080fd5b50610192600480360381019061018d9190612fb5565b6105c9565b60405161019f9190612ffd565b60405180910390f35b3480156101b457600080fd5b506101bd61062a565b6040516101ca91906130b1565b60405180910390f35b3480156101df57600080fd5b506101fa60048036038101906101f59190613109565b6106bc565b6040516102079190613177565b60405180910390f35b34801561021c57600080fd5b50610237600480360381019061023291906131be565b610702565b005b34801561024557600080fd5b5061024e61081a565b60405161025b9190613354565b60405180910390f35b34801561027057600080fd5b50610279610a83565b6040516102869190613385565b60405180910390f35b34801561029b57600080fd5b506102a4610ac4565b6040516102b19190613385565b60405180910390f35b3480156102c657600080fd5b506102cf610ace565b6040516102dc9190613354565b60405180910390f35b3480156102f157600080fd5b5061030c600480360381019061030791906133a0565b610dbc565b005b610328600480360381019061032391906133f3565b610e1c565b005b34801561033657600080fd5b50610351600480360381019061034c91906133a0565b61101f565b005b34801561035f57600080fd5b5061036861103f565b6040516103759190613354565b60405180910390f35b34801561038a57600080fd5b506103a560048036038101906103a09190613109565b61132d565b6040516103b29190613177565b60405180910390f35b3480156103c757600080fd5b506103e260048036038101906103dd9190613433565b6113b4565b6040516103ef9190613385565b60405180910390f35b610412600480360381019061040d9190613595565b61146c565b60405161041f9190613385565b60405180910390f35b34801561043457600080fd5b5061043d6114ae565b60405161044a9190613776565b60405180910390f35b34801561045f57600080fd5b50610468611691565b60405161047591906130b1565b60405180910390f35b34801561048a57600080fd5b50610493611723565b6040516104a091906137a7565b60405180910390f35b3480156104b557600080fd5b506104d060048036038101906104cb91906137ee565b611749565b005b6104ec60048036038101906104e79190613109565b61175f565b005b3480156104fa57600080fd5b50610515600480360381019061051091906138cf565b6117f9565b005b610531600480360381019061052c9190613109565b61185b565b005b34801561053f57600080fd5b5061055a60048036038101906105559190613109565b611a99565b60405161056791906130b1565b60405180910390f35b61058a600480360381019061058591906133f3565b611bac565b005b34801561059857600080fd5b506105b360048036038101906105ae9190613952565b611ddd565b6040516105c09190612ffd565b60405180910390f35b6000634906490660e01b7bffffffffffffffffffffffffffffffffffffffffffffffffffffffff1916827bffffffffffffffffffffffffffffffffffffffffffffffffffffffff19161480610623575061062282611e71565b5b9050919050565b606060008054610639906139c1565b80601f0160208091040260200160405190810160405280929190818152602001828054610665906139c1565b80156106b25780601f10610687576101008083540402835291602001916106b2565b820191906000526020600020905b81548152906001019060200180831161069557829003601f168201915b5050505050905090565b60006106c782611f53565b6004600083815260200190815260200160002060009054906101000a900473ffffffffffffffffffffffffffffffffffffffff169050919050565b600061070d8261132d565b90508073ffffffffffffffffffffffffffffffffffffffff168373ffffffffffffffffffffffffffffffffffffffff16141561077e576040517f08c379a000000000000000000000000000000000000000000000000000000000815260040161077590613a65565b60405180910390fd5b8073ffffffffffffffffffffffffffffffffffffffff1661079d611f9e565b73ffffffffffffffffffffffffffffffffffffffff1614806107cc57506107cb816107c6611f9e565b611ddd565b5b61080b576040517f08c379a000000000000000000000000000000000000000000000000000000000815260040161080290613af7565b60405180910390fd5b6108158383611fa6565b505050565b60606000610828600761205f565b90506000610836600861205f565b610840600761205f565b61084a9190613b46565b90506000808267ffffffffffffffff8111156108695761086861346a565b5b6040519080825280602002602001820160405280156108a257816020015b61088f612e49565b8152602001906001900390816108875790505b50905060005b84811015610a78573073ffffffffffffffffffffffffffffffffffffffff16600c60006001846108d89190613b7a565b815260200190815260200160002060020160009054906101000a900473ffffffffffffffffffffffffffffffffffffffff1673ffffffffffffffffffffffffffffffffffffffff161415610a655760006001826109359190613b7a565b90506000600c60008381526020019081526020016000209050806040518060a0016040529081600082015481526020016001820160009054906101000a900473ffffffffffffffffffffffffffffffffffffffff1673ffffffffffffffffffffffffffffffffffffffff1673ffffffffffffffffffffffffffffffffffffffff1681526020016002820160009054906101000a900473ffffffffffffffffffffffffffffffffffffffff1673ffffffffffffffffffffffffffffffffffffffff1673ffffffffffffffffffffffffffffffffffffffff168152602001600382015481526020016004820160009054906101000a900460ff161515151581525050848681518110610a4857610a47613bd0565b5b6020026020010181905250600185610a609190613b7a565b945050505b8080610a7090613bff565b9150506108a8565b508094505050505090565b6000600e60009054906101000a900473ffffffffffffffffffffffffffffffffffffffff1673ffffffffffffffffffffffffffffffffffffffff1631905090565b6000600a54905090565b60606000610adc600761205f565b905060008060005b83811015610b85573373ffffffffffffffffffffffffffffffffffffffff16600c6000600184610b149190613b7a565b815260200190815260200160002060020160009054906101000a900473ffffffffffffffffffffffffffffffffffffffff1673ffffffffffffffffffffffffffffffffffffffff161415610b7257600183610b6f9190613b7a565b92505b8080610b7d90613bff565b915050610ae4565b5060008267ffffffffffffffff811115610ba257610ba161346a565b5b604051908082528060200260200182016040528015610bdb57816020015b610bc8612e49565b815260200190600190039081610bc05790505b50905060005b84811015610db1573373ffffffffffffffffffffffffffffffffffffffff16600c6000600184610c119190613b7a565b815260200190815260200160002060020160009054906101000a900473ffffffffffffffffffffffffffffffffffffffff1673ffffffffffffffffffffffffffffffffffffffff161415610d9e576000600182610c6e9190613b7a565b90506000600c60008381526020019081526020016000209050806040518060a0016040529081600082015481526020016001820160009054906101000a900473ffffffffffffffffffffffffffffffffffffffff1673ffffffffffffffffffffffffffffffffffffffff1673ffffffffffffffffffffffffffffffffffffffff1681526020016002820160009054906101000a900473ffffffffffffffffffffffffffffffffffffffff1673ffffffffffffffffffffffffffffffffffffffff1673ffffffffffffffffffffffffffffffffffffffff168152602001600382015481526020016004820160009054906101000a900460ff161515151581525050848681518110610d8157610d80613bd0565b5b6020026020010181905250600185610d999190613b7a565b945050505b8080610da990613bff565b915050610be1565b508094505050505090565b610dcd610dc7611f9e565b8261206d565b610e0c576040517f08c379a0000000000000000000000000000000000000000000000000000000008152600401610e0390613cba565b60405180910390fd5b610e17838383612102565b505050565b60008111610e5f576040517f08c379a0000000000000000000000000000000000000000000000000000000008152600401610e5690613d26565b60405180910390fd5b600a543414610ea3576040517f08c379a0000000000000000000000000000000000000000000000000000000008152600401610e9a90613db8565b60405180910390fd5b6040518060a001604052808381526020013373ffffffffffffffffffffffffffffffffffffffff1681526020013073ffffffffffffffffffffffffffffffffffffffff16815260200182815260200160001515815250600c60008481526020019081526020016000206000820151816000015560208201518160010160006101000a81548173ffffffffffffffffffffffffffffffffffffffff021916908373ffffffffffffffffffffffffffffffffffffffff16021790555060408201518160020160006101000a81548173ffffffffffffffffffffffffffffffffffffffff021916908373ffffffffffffffffffffffffffffffffffffffff1602179055506060820151816003015560808201518160040160006101000a81548160ff021916908315150217905550905050610fdc333084612102565b817fa50b85acee26cc470be173b06872d7f0a843ff66a2617fda7fefcbca8e843f2333308460006040516110139493929190613dd8565b60405180910390a25050565b61103a838383604051806020016040528060008152506117f9565b505050565b6060600061104d600761205f565b905060008060005b838110156110f6573373ffffffffffffffffffffffffffffffffffffffff16600c60006001846110859190613b7a565b815260200190815260200160002060010160009054906101000a900473ffffffffffffffffffffffffffffffffffffffff1673ffffffffffffffffffffffffffffffffffffffff1614156110e3576001836110e09190613b7a565b92505b80806110ee90613bff565b915050611055565b5060008267ffffffffffffffff8111156111135761111261346a565b5b60405190808252806020026020018201604052801561114c57816020015b611139612e49565b8152602001906001900390816111315790505b50905060005b84811015611322573373ffffffffffffffffffffffffffffffffffffffff16600c60006001846111829190613b7a565b815260200190815260200160002060010160009054906101000a900473ffffffffffffffffffffffffffffffffffffffff1673ffffffffffffffffffffffffffffffffffffffff16141561130f5760006001826111df9190613b7a565b90506000600c60008381526020019081526020016000209050806040518060a0016040529081600082015481526020016001820160009054906101000a900473ffffffffffffffffffffffffffffffffffffffff1673ffffffffffffffffffffffffffffffffffffffff1673ffffffffffffffffffffffffffffffffffffffff1681526020016002820160009054906101000a900473ffffffffffffffffffffffffffffffffffffffff1673ffffffffffffffffffffffffffffffffffffffff1673ffffffffffffffffffffffffffffffffffffffff168152602001600382015481526020016004820160009054906101000a900460ff1615151515815250508486815181106112f2576112f1613bd0565b5b602002602001018190525060018561130a9190613b7a565b945050505b808061131a90613bff565b915050611152565b508094505050505090565b600080611339836123fc565b9050600073ffffffffffffffffffffffffffffffffffffffff168173ffffffffffffffffffffffffffffffffffffffff1614156113ab576040517f08c379a00000000000000000000000000000000000000000000000000000000081526004016113a290613e69565b60405180910390fd5b80915050919050565b60008073ffffffffffffffffffffffffffffffffffffffff168273ffffffffffffffffffffffffffffffffffffffff161415611425576040517f08c379a000000000000000000000000000000000000000000000000000000000815260040161141c90613efb565b60405180910390fd5b600360008373ffffffffffffffffffffffffffffffffffffffff1673ffffffffffffffffffffffffffffffffffffffff168152602001908152602001600020549050919050565b60006114786007612439565b6000611484600761205f565b9050611490338261244f565b61149a818561266d565b6114a48184610e1c565b8091505092915050565b6060600d805480602002602001604051908101604052809291908181526020016000905b828210156116885783829060005260206000209060040201604051806080016040529081600082018054611505906139c1565b80601f0160208091040260200160405190810160405280929190818152602001828054611531906139c1565b801561157e5780601f106115535761010080835404028352916020019161157e565b820191906000526020600020905b81548152906001019060200180831161156157829003601f168201915b50505050508152602001600182018054611597906139c1565b80601f01602080910402602001604051908101604052809291908181526020018280546115c3906139c1565b80156116105780601f106115e557610100808354040283529160200191611610565b820191906000526020600020905b8154815290600101906020018083116115f357829003601f168201915b50505050508152602001600282015481526020016003820160009054906101000a900473ffffffffffffffffffffffffffffffffffffffff1673ffffffffffffffffffffffffffffffffffffffff1673ffffffffffffffffffffffffffffffffffffffff1681525050815260200190600101906114d2565b50505050905090565b6060600180546116a0906139c1565b80601f01602080910402602001604051908101604052809291908181526020018280546116cc906139c1565b80156117195780601f106116ee57610100808354040283529160200191611719565b820191906000526020600020905b8154815290600101906020018083116116fc57829003601f168201915b5050505050905090565b600e60009054906101000a900473ffffffffffffffffffffffffffffffffffffffff1681565b61175b611754611f9e565b8383612718565b5050565b3373ffffffffffffffffffffffffffffffffffffffff16600b60009054906101000a900473ffffffffffffffffffffffffffffffffffffffff1673ffffffffffffffffffffffffffffffffffffffff16146117ef576040517f08c379a00000000000000000000000000000000000000000000000000000000081526004016117e690613f8d565b60405180910390fd5b80600a8190555050565b61180a611804611f9e565b8361206d565b611849576040517f08c379a000000000000000000000000000000000000000000000000000000000815260040161184090613cba565b60405180910390fd5b61185584848484612885565b50505050565b6000600c60008381526020019081526020016000206003015490506000600c600084815260200190815260200160002060010160009054906101000a900473ffffffffffffffffffffffffffffffffffffffff1690508134146118f3576040517f08c379a00000000000000000000000000000000000000000000000000000000081526004016118ea9061401f565b60405180910390fd5b33600c600085815260200190815260200160002060020160006101000a81548173ffffffffffffffffffffffffffffffffffffffff021916908373ffffffffffffffffffffffffffffffffffffffff1602179055506001600c600085815260200190815260200160002060040160006101000a81548160ff0219169083151502179055506000600c600085815260200190815260200160002060010160006101000a81548173ffffffffffffffffffffffffffffffffffffffff021916908373ffffffffffffffffffffffffffffffffffffffff1602179055506119d76008612439565b6119e2303385612102565b600b60009054906101000a900473ffffffffffffffffffffffffffffffffffffffff1673ffffffffffffffffffffffffffffffffffffffff166108fc600a549081150290604051600060405180830381858888f19350505050158015611a4c573d6000803e3d6000fd5b508073ffffffffffffffffffffffffffffffffffffffff166108fc349081150290604051600060405180830381858888f19350505050158015611a93573d6000803e3d6000fd5b50505050565b6060611aa482611f53565b6000600660008481526020019081526020016000208054611ac4906139c1565b80601f0160208091040260200160405190810160405280929190818152602001828054611af0906139c1565b8015611b3d5780601f10611b1257610100808354040283529160200191611b3d565b820191906000526020600020905b815481529060010190602001808311611b2057829003601f168201915b505050505090506000611b4e6128e1565b9050600081511415611b64578192505050611ba7565b600082511115611b99578082604051602001611b8192919061407b565b60405160208183030381529060405292505050611ba7565b611ba2846128f8565b925050505b919050565b3373ffffffffffffffffffffffffffffffffffffffff16600c600084815260200190815260200160002060020160009054906101000a900473ffffffffffffffffffffffffffffffffffffffff1673ffffffffffffffffffffffffffffffffffffffff1614611c50576040517f08c379a0000000000000000000000000000000000000000000000000000000008152600401611c4790614111565b60405180910390fd5b600a543414611c94576040517f08c379a0000000000000000000000000000000000000000000000000000000008152600401611c8b90613db8565b60405180910390fd5b6000600c600084815260200190815260200160002060040160006101000a81548160ff02191690831515021790555080600c60008481526020019081526020016000206003018190555033600c600084815260200190815260200160002060010160006101000a81548173ffffffffffffffffffffffffffffffffffffffff021916908373ffffffffffffffffffffffffffffffffffffffff16021790555030600c600084815260200190815260200160002060020160006101000a81548173ffffffffffffffffffffffffffffffffffffffff021916908373ffffffffffffffffffffffffffffffffffffffff160217905550611d926008612960565b611d9d333084612102565b817fc6b0d13d6c1af02bfe5761531c93b25f6078fbae63c013f2afb85a0a42ffc1f3333084604051611dd193929190614131565b60405180910390a25050565b6000600560008473ffffffffffffffffffffffffffffffffffffffff1673ffffffffffffffffffffffffffffffffffffffff16815260200190815260200160002060008373ffffffffffffffffffffffffffffffffffffffff1673ffffffffffffffffffffffffffffffffffffffff16815260200190815260200160002060009054906101000a900460ff16905092915050565b60007f80ac58cd000000000000000000000000000000000000000000000000000000007bffffffffffffffffffffffffffffffffffffffffffffffffffffffff1916827bffffffffffffffffffffffffffffffffffffffffffffffffffffffff19161480611f3c57507f5b5e139f000000000000000000000000000000000000000000000000000000007bffffffffffffffffffffffffffffffffffffffffffffffffffffffff1916827bffffffffffffffffffffffffffffffffffffffffffffffffffffffff1916145b80611f4c5750611f4b826129bc565b5b9050919050565b611f5c81612a26565b611f9b576040517f08c379a0000000000000000000000000000000000000000000000000000000008152600401611f9290613e69565b60405180910390fd5b50565b600033905090565b816004600083815260200190815260200160002060006101000a81548173ffffffffffffffffffffffffffffffffffffffff021916908373ffffffffffffffffffffffffffffffffffffffff160217905550808273ffffffffffffffffffffffffffffffffffffffff166120198361132d565b73ffffffffffffffffffffffffffffffffffffffff167f8c5be1e5ebec7d5bd14f71427d1e84f3dd0314c0f7b2291e5b200ac8c7c3b92560405160405180910390a45050565b600081600001549050919050565b6000806120798361132d565b90508073ffffffffffffffffffffffffffffffffffffffff168473ffffffffffffffffffffffffffffffffffffffff1614806120bb57506120ba8185611ddd565b5b806120f957508373ffffffffffffffffffffffffffffffffffffffff166120e1846106bc565b73ffffffffffffffffffffffffffffffffffffffff16145b91505092915050565b8273ffffffffffffffffffffffffffffffffffffffff166121228261132d565b73ffffffffffffffffffffffffffffffffffffffff1614612178576040517f08c379a000000000000000000000000000000000000000000000000000000000815260040161216f906141da565b60405180910390fd5b600073ffffffffffffffffffffffffffffffffffffffff168273ffffffffffffffffffffffffffffffffffffffff1614156121e8576040517f08c379a00000000000000000000000000000000000000000000000000000000081526004016121df9061426c565b60405180910390fd5b6121f58383836001612a67565b8273ffffffffffffffffffffffffffffffffffffffff166122158261132d565b73ffffffffffffffffffffffffffffffffffffffff161461226b576040517f08c379a0000000000000000000000000000000000000000000000000000000008152600401612262906141da565b60405180910390fd5b6004600082815260200190815260200160002060006101000a81549073ffffffffffffffffffffffffffffffffffffffff02191690556001600360008573ffffffffffffffffffffffffffffffffffffffff1673ffffffffffffffffffffffffffffffffffffffff168152602001908152602001600020600082825403925050819055506001600360008473ffffffffffffffffffffffffffffffffffffffff1673ffffffffffffffffffffffffffffffffffffffff16815260200190815260200160002060008282540192505081905550816002600083815260200190815260200160002060006101000a81548173ffffffffffffffffffffffffffffffffffffffff021916908373ffffffffffffffffffffffffffffffffffffffff160217905550808273ffffffffffffffffffffffffffffffffffffffff168473ffffffffffffffffffffffffffffffffffffffff167fddf252ad1be2c89b69c2b068fc378daa952ba7f163c4a11628f55a4df523b3ef60405160405180910390a46123f78383836001612a6d565b505050565b60006002600083815260200190815260200160002060009054906101000a900473ffffffffffffffffffffffffffffffffffffffff169050919050565b6001816000016000828254019250508190555050565b600073ffffffffffffffffffffffffffffffffffffffff168273ffffffffffffffffffffffffffffffffffffffff1614156124bf576040517f08c379a00000000000000000000000000000000000000000000000000000000081526004016124b6906142d8565b60405180910390fd5b6124c881612a26565b15612508576040517f08c379a00000000000000000000000000000000000000000000000000000000081526004016124ff90614344565b60405180910390fd5b612516600083836001612a67565b61251f81612a26565b1561255f576040517f08c379a000000000000000000000000000000000000000000000000000000000815260040161255690614344565b60405180910390fd5b6001600360008473ffffffffffffffffffffffffffffffffffffffff1673ffffffffffffffffffffffffffffffffffffffff16815260200190815260200160002060008282540192505081905550816002600083815260200190815260200160002060006101000a81548173ffffffffffffffffffffffffffffffffffffffff021916908373ffffffffffffffffffffffffffffffffffffffff160217905550808273ffffffffffffffffffffffffffffffffffffffff16600073ffffffffffffffffffffffffffffffffffffffff167fddf252ad1be2c89b69c2b068fc378daa952ba7f163c4a11628f55a4df523b3ef60405160405180910390a4612669600083836001612a6d565b5050565b61267682612a26565b6126b5576040517f08c379a00000000000000000000000000000000000000000000000000000000081526004016126ac906143d6565b60405180910390fd5b806006600084815260200190815260200160002090805190602001906126dc929190612ea6565b507ff8e1a15aba9398e019f0b49df1a4fde98ee17ae345cb5f6b5e2c27f5033e8ce78260405161270c9190613385565b60405180910390a15050565b8173ffffffffffffffffffffffffffffffffffffffff168373ffffffffffffffffffffffffffffffffffffffff161415612787576040517f08c379a000000000000000000000000000000000000000000000000000000000815260040161277e90614442565b60405180910390fd5b80600560008573ffffffffffffffffffffffffffffffffffffffff1673ffffffffffffffffffffffffffffffffffffffff16815260200190815260200160002060008473ffffffffffffffffffffffffffffffffffffffff1673ffffffffffffffffffffffffffffffffffffffff16815260200190815260200160002060006101000a81548160ff0219169083151502179055508173ffffffffffffffffffffffffffffffffffffffff168373ffffffffffffffffffffffffffffffffffffffff167f17307eab39ab6107e8899845ad3d59bd9653f200f220920489ca2b5937696c31836040516128789190612ffd565b60405180910390a3505050565b612890848484612102565b61289c84848484612a73565b6128db576040517f08c379a00000000000000000000000000000000000000000000000000000000081526004016128d2906144d4565b60405180910390fd5b50505050565b606060405180602001604052806000815250905090565b606061290382611f53565b600061290d6128e1565b9050600081511161292d5760405180602001604052806000815250612958565b8061293784612bfb565b60405160200161294892919061407b565b6040516020818303038152906040525b915050919050565b600081600001549050600081116129ac576040517f08c379a00000000000000000000000000000000000000000000000000000000081526004016129a390614540565b60405180910390fd5b6001810382600001819055505050565b60007f01ffc9a7000000000000000000000000000000000000000000000000000000007bffffffffffffffffffffffffffffffffffffffffffffffffffffffff1916827bffffffffffffffffffffffffffffffffffffffffffffffffffffffff1916149050919050565b60008073ffffffffffffffffffffffffffffffffffffffff16612a48836123fc565b73ffffffffffffffffffffffffffffffffffffffff1614159050919050565b50505050565b50505050565b6000612a948473ffffffffffffffffffffffffffffffffffffffff16612cd3565b15612bee578373ffffffffffffffffffffffffffffffffffffffff1663150b7a02612abd611f9e565b8786866040518563ffffffff1660e01b8152600401612adf94939291906145b5565b6020604051808303816000875af1925050508015612b1b57506040513d601f19601f82011682018060405250810190612b189190614616565b60015b612b9e573d8060008114612b4b576040519150601f19603f3d011682016040523d82523d6000602084013e612b50565b606091505b50600081511415612b96576040517f08c379a0000000000000000000000000000000000000000000000000000000008152600401612b8d906144d4565b60405180910390fd5b805181602001fd5b63150b7a0260e01b7bffffffffffffffffffffffffffffffffffffffffffffffffffffffff1916817bffffffffffffffffffffffffffffffffffffffffffffffffffffffff191614915050612bf3565b600190505b949350505050565b606060006001612c0a84612cf6565b01905060008167ffffffffffffffff811115612c2957612c2861346a565b5b6040519080825280601f01601f191660200182016040528015612c5b5781602001600182028036833780820191505090505b509050600082602001820190505b600115612cc8578080600190039150507f3031323334353637383961626364656600000000000000000000000000000000600a86061a8153600a8581612cb257612cb1614643565b5b0494506000851415612cc357612cc8565b612c69565b819350505050919050565b6000808273ffffffffffffffffffffffffffffffffffffffff163b119050919050565b600080600090507a184f03e93ff9f4daa797ed6e38ed64bf6a1f0100000000000000008310612d54577a184f03e93ff9f4daa797ed6e38ed64bf6a1f0100000000000000008381612d4a57612d49614643565b5b0492506040810190505b6d04ee2d6d415b85acef81000000008310612d91576d04ee2d6d415b85acef81000000008381612d8757612d86614643565b5b0492506020810190505b662386f26fc100008310612dc057662386f26fc100008381612db657612db5614643565b5b0492506010810190505b6305f5e1008310612de9576305f5e1008381612ddf57612dde614643565b5b0492506008810190505b6127108310612e0e576127108381612e0457612e03614643565b5b0492506004810190505b60648310612e315760648381612e2757612e26614643565b5b0492506002810190505b600a8310612e40576001810190505b80915050919050565b6040518060a0016040528060008152602001600073ffffffffffffffffffffffffffffffffffffffff168152602001600073ffffffffffffffffffffffffffffffffffffffff168152602001600081526020016000151581525090565b828054612eb2906139c1565b90600052602060002090601f016020900481019282612ed45760008555612f1b565b82601f10612eed57805160ff1916838001178555612f1b565b82800160010185558215612f1b579182015b82811115612f1a578251825591602001919060010190612eff565b5b509050612f289190612f2c565b5090565b5b80821115612f45576000816000905550600101612f2d565b5090565b6000604051905090565b600080fd5b600080fd5b60007fffffffff0000000000000000000000000000000000000000000000000000000082169050919050565b612f9281612f5d565b8114612f9d57600080fd5b50565b600081359050612faf81612f89565b92915050565b600060208284031215612fcb57612fca612f53565b5b6000612fd984828501612fa0565b91505092915050565b60008115159050919050565b612ff781612fe2565b82525050565b60006020820190506130126000830184612fee565b92915050565b600081519050919050565b600082825260208201905092915050565b60005b83811015613052578082015181840152602081019050613037565b83811115613061576000848401525b50505050565b6000601f19601f8301169050919050565b600061308382613018565b61308d8185613023565b935061309d818560208601613034565b6130a681613067565b840191505092915050565b600060208201905081810360008301526130cb8184613078565b905092915050565b6000819050919050565b6130e6816130d3565b81146130f157600080fd5b50565b600081359050613103816130dd565b92915050565b60006020828403121561311f5761311e612f53565b5b600061312d848285016130f4565b91505092915050565b600073ffffffffffffffffffffffffffffffffffffffff82169050919050565b600061316182613136565b9050919050565b61317181613156565b82525050565b600060208201905061318c6000830184613168565b92915050565b61319b81613156565b81146131a657600080fd5b50565b6000813590506131b881613192565b92915050565b600080604083850312156131d5576131d4612f53565b5b60006131e3858286016131a9565b92505060206131f4858286016130f4565b9150509250929050565b600081519050919050565b600082825260208201905092915050565b6000819050602082019050919050565b613233816130d3565b82525050565b600061324482613136565b9050919050565b61325481613239565b82525050565b61326381612fe2565b82525050565b60a08201600082015161327f600085018261322a565b506020820151613292602085018261324b565b5060408201516132a5604085018261324b565b5060608201516132b8606085018261322a565b5060808201516132cb608085018261325a565b50505050565b60006132dd8383613269565b60a08301905092915050565b6000602082019050919050565b6000613301826131fe565b61330b8185613209565b93506133168361321a565b8060005b8381101561334757815161332e88826132d1565b9750613339836132e9565b92505060018101905061331a565b5085935050505092915050565b6000602082019050818103600083015261336e81846132f6565b905092915050565b61337f816130d3565b82525050565b600060208201905061339a6000830184613376565b92915050565b6000806000606084860312156133b9576133b8612f53565b5b60006133c7868287016131a9565b93505060206133d8868287016131a9565b92505060406133e9868287016130f4565b9150509250925092565b6000806040838503121561340a57613409612f53565b5b6000613418858286016130f4565b9250506020613429858286016130f4565b9150509250929050565b60006020828403121561344957613448612f53565b5b6000613457848285016131a9565b91505092915050565b600080fd5b600080fd5b7f4e487b7100000000000000000000000000000000000000000000000000000000600052604160045260246000fd5b6134a282613067565b810181811067ffffffffffffffff821117156134c1576134c061346a565b5b80604052505050565b60006134d4612f49565b90506134e08282613499565b919050565b600067ffffffffffffffff821115613500576134ff61346a565b5b61350982613067565b9050602081019050919050565b82818337600083830152505050565b6000613538613533846134e5565b6134ca565b90508281526020810184848401111561355457613553613465565b5b61355f848285613516565b509392505050565b600082601f83011261357c5761357b613460565b5b813561358c848260208601613525565b91505092915050565b600080604083850312156135ac576135ab612f53565b5b600083013567ffffffffffffffff8111156135ca576135c9612f58565b5b6135d685828601613567565b92505060206135e7858286016130f4565b9150509250929050565b600081519050919050565b600082825260208201905092915050565b6000819050602082019050919050565b600082825260208201905092915050565b600061363982613018565b613643818561361d565b9350613653818560208601613034565b61365c81613067565b840191505092915050565b61367081613156565b82525050565b60006080830160008301518482036000860152613693828261362e565b915050602083015184820360208601526136ad828261362e565b91505060408301516136c2604086018261322a565b5060608301516136d56060860182613667565b508091505092915050565b60006136ec8383613676565b905092915050565b6000602082019050919050565b600061370c826135f1565b61371681856135fc565b9350836020820285016137288561360d565b8060005b85811015613764578484038952815161374585826136e0565b9450613750836136f4565b925060208a0199505060018101905061372c565b50829750879550505050505092915050565b600060208201905081810360008301526137908184613701565b905092915050565b6137a181613239565b82525050565b60006020820190506137bc6000830184613798565b92915050565b6137cb81612fe2565b81146137d657600080fd5b50565b6000813590506137e8816137c2565b92915050565b6000806040838503121561380557613804612f53565b5b6000613813858286016131a9565b9250506020613824858286016137d9565b9150509250929050565b600067ffffffffffffffff8211156138495761384861346a565b5b61385282613067565b9050602081019050919050565b600061387261386d8461382e565b6134ca565b90508281526020810184848401111561388e5761388d613465565b5b613899848285613516565b509392505050565b600082601f8301126138b6576138b5613460565b5b81356138c684826020860161385f565b91505092915050565b600080600080608085870312156138e9576138e8612f53565b5b60006138f7878288016131a9565b9450506020613908878288016131a9565b9350506040613919878288016130f4565b925050606085013567ffffffffffffffff81111561393a57613939612f58565b5b613946878288016138a1565b91505092959194509250565b6000806040838503121561396957613968612f53565b5b6000613977858286016131a9565b9250506020613988858286016131a9565b9150509250929050565b7f4e487b7100000000000000000000000000000000000000000000000000000000600052602260045260246000fd5b600060028204905060018216806139d957607f821691505b602082108114156139ed576139ec613992565b5b50919050565b7f4552433732313a20617070726f76616c20746f2063757272656e74206f776e6560008201527f7200000000000000000000000000000000000000000000000000000000000000602082015250565b6000613a4f602183613023565b9150613a5a826139f3565b604082019050919050565b60006020820190508181036000830152613a7e81613a42565b9050919050565b7f4552433732313a20617070726f76652063616c6c6572206973206e6f7420746f60008201527f6b656e206f776e6572206f7220617070726f76656420666f7220616c6c000000602082015250565b6000613ae1603d83613023565b9150613aec82613a85565b604082019050919050565b60006020820190508181036000830152613b1081613ad4565b9050919050565b7f4e487b7100000000000000000000000000000000000000000000000000000000600052601160045260246000fd5b6000613b51826130d3565b9150613b5c836130d3565b925082821015613b6f57613b6e613b17565b5b828203905092915050565b6000613b85826130d3565b9150613b90836130d3565b9250827fffffffffffffffffffffffffffffffffffffffffffffffffffffffffffffffff03821115613bc557613bc4613b17565b5b828201905092915050565b7f4e487b7100000000000000000000000000000000000000000000000000000000600052603260045260246000fd5b6000613c0a826130d3565b91507fffffffffffffffffffffffffffffffffffffffffffffffffffffffffffffffff821415613c3d57613c3c613b17565b5b600182019050919050565b7f4552433732313a2063616c6c6572206973206e6f7420746f6b656e206f776e6560008201527f72206f7220617070726f76656400000000000000000000000000000000000000602082015250565b6000613ca4602d83613023565b9150613caf82613c48565b604082019050919050565b60006020820190508181036000830152613cd381613c97565b9050919050565b7f5072696365206d757374206265206174206c6561737420312077656900000000600082015250565b6000613d10601c83613023565b9150613d1b82613cda565b602082019050919050565b60006020820190508181036000830152613d3f81613d03565b9050919050565b7f5072696365206d75737420626520657175616c20746f206c697374696e67207060008201527f7269636500000000000000000000000000000000000000000000000000000000602082015250565b6000613da2602483613023565b9150613dad82613d46565b604082019050919050565b60006020820190508181036000830152613dd181613d95565b9050919050565b6000608082019050613ded6000830187613168565b613dfa6020830186613168565b613e076040830185613376565b613e146060830184612fee565b95945050505050565b7f4552433732313a20696e76616c696420746f6b656e2049440000000000000000600082015250565b6000613e53601883613023565b9150613e5e82613e1d565b602082019050919050565b60006020820190508181036000830152613e8281613e46565b9050919050565b7f4552433732313a2061646472657373207a65726f206973206e6f74206120766160008201527f6c6964206f776e65720000000000000000000000000000000000000000000000602082015250565b6000613ee5602983613023565b9150613ef082613e89565b604082019050919050565b60006020820190508181036000830152613f1481613ed8565b9050919050565b7f4f6e6c79206d61726b6574706c616365206f776e65722063616e20757064617460008201527f65206c697374696e672070726963652e00000000000000000000000000000000602082015250565b6000613f77603083613023565b9150613f8282613f1b565b604082019050919050565b60006020820190508181036000830152613fa681613f6a565b9050919050565b7f506c65617365207375626d6974207468652061736b696e67207072696365206960008201527f6e206f7264657220746f20636f6d706c65746520746865207075726368617365602082015250565b6000614009604083613023565b915061401482613fad565b604082019050919050565b6000602082019050818103600083015261403881613ffc565b9050919050565b600081905092915050565b600061405582613018565b61405f818561403f565b935061406f818560208601613034565b80840191505092915050565b6000614087828561404a565b9150614093828461404a565b91508190509392505050565b7f4f6e6c79206974656d206f776e65722063616e20706572666f726d207468697360008201527f206f7065726174696f6e00000000000000000000000000000000000000000000602082015250565b60006140fb602a83613023565b91506141068261409f565b604082019050919050565b6000602082019050818103600083015261412a816140ee565b9050919050565b60006060820190506141466000830186613168565b6141536020830185613168565b6141606040830184613376565b949350505050565b7f4552433732313a207472616e736665722066726f6d20696e636f72726563742060008201527f6f776e6572000000000000000000000000000000000000000000000000000000602082015250565b60006141c4602583613023565b91506141cf82614168565b604082019050919050565b600060208201905081810360008301526141f3816141b7565b9050919050565b7f4552433732313a207472616e7366657220746f20746865207a65726f2061646460008201527f7265737300000000000000000000000000000000000000000000000000000000602082015250565b6000614256602483613023565b9150614261826141fa565b604082019050919050565b6000602082019050818103600083015261428581614249565b9050919050565b7f4552433732313a206d696e7420746f20746865207a65726f2061646472657373600082015250565b60006142c2602083613023565b91506142cd8261428c565b602082019050919050565b600060208201905081810360008301526142f1816142b5565b9050919050565b7f4552433732313a20746f6b656e20616c7265616479206d696e74656400000000600082015250565b600061432e601c83613023565b9150614339826142f8565b602082019050919050565b6000602082019050818103600083015261435d81614321565b9050919050565b7f45524337323155524953746f726167653a2055524920736574206f66206e6f6e60008201527f6578697374656e7420746f6b656e000000000000000000000000000000000000602082015250565b60006143c0602e83613023565b91506143cb82614364565b604082019050919050565b600060208201905081810360008301526143ef816143b3565b9050919050565b7f4552433732313a20617070726f766520746f2063616c6c657200000000000000600082015250565b600061442c601983613023565b9150614437826143f6565b602082019050919050565b6000602082019050818103600083015261445b8161441f565b9050919050565b7f4552433732313a207472616e7366657220746f206e6f6e20455243373231526560008201527f63656976657220696d706c656d656e7465720000000000000000000000000000602082015250565b60006144be603283613023565b91506144c982614462565b604082019050919050565b600060208201905081810360008301526144ed816144b1565b9050919050565b7f436f756e7465723a2064656372656d656e74206f766572666c6f770000000000600082015250565b600061452a601b83613023565b9150614535826144f4565b602082019050919050565b600060208201905081810360008301526145598161451d565b9050919050565b600081519050919050565b600082825260208201905092915050565b600061458782614560565b614591818561456b565b93506145a1818560208601613034565b6145aa81613067565b840191505092915050565b60006080820190506145ca6000830187613168565b6145d76020830186613168565b6145e46040830185613376565b81810360608301526145f6818461457c565b905095945050505050565b60008151905061461081612f89565b92915050565b60006020828403121561462c5761462b612f53565b5b600061463a84828501614601565b91505092915050565b7f4e487b7100000000000000000000000000000000000000000000000000000000600052601260045260246000fdfea2646970667358221220c8eea479ea27b2f63d249998cf289a58c2a4677689c03b418fc6586abf15510964736f6c634300080a0033",
  "linkReferences": {},
  "deployedLinkReferences": {}
}